:020000040800F2
:10000000D0040020010100086F170008EB1600085B
:100010006D170008BD060008ED180008000000007C
:10002000000000000000000000000000731700083E
:10003000BF060008000000007117000875170008CF
:100040001B0100081B0100081B0100081B01000820
:100050001B0100081B0100081B0100081B01000810
:100060001B0100081B0100081B0100081B01000800
:100070001B0100081B0100081B0100081B010008F0
:100080001B0100081B0100081B0100081B010008E0
:100090001B0100081B0100081B0100081B010008D0
:1000A0001B0100081B0100081B0100081B010008C0
:1000B0001B0100081B010008000000001B010008D4
:1000C0001B01000800000000000000001B010008E8
:1000D000000000001B0100081B01000800000000D8
:1000E0001B0100081B0100081B010008DFF80CD0F1
:1000F00000F064F900480047E11A0008D00400202D
:100100000648804706480047FEE7FEE7FEE7FEE7B1
:10011000FEE7FEE7FEE7FEE7FEE7FEE7CD17000895
:10012000ED00000840EA01039B0703D009E008C97D
:10013000121F08C0042AFAD203E011F8013B00F8AC
:10014000013B521EF9D27047D2B201E000F8012BF8
:10015000491EFBD270470022F6E710B513460A4647
:1001600004461946FFF7F0FF204610BDF0B480EAC0
:100170000102D40F4200B2EB410F02D20246084600
:1001800011464A0042D0C30DDDB2C1F3C752AD1AC9
:10019000202D35DAC1F3160141F4000204B15242B8
:1001A000C5F1200602FA06F12A411044B3EBD05FF4
:1001B00023D0C4B1012DA0EBC35009DCF0BC4FF03B
:1001C000004202EAC352DBB200F5000000F0B2B810
:1001D000400000F1807000EBC350A0F1807040EA55
:1001E000D170490009E0490841EAC071A0EBC35051
:1001F00000F50000400800EBC350F0BC00F091B8DF
:100200006142012202EB4101001BF6E7F0BC70479E
:1002100081F00041AAE780F00040A7E780EA0102F0
:1002200010B502F00043400022D04A001FD0010E5A
:1002300001EB1261C0F35600C2F3560240F4000015
:1002400042F40002A0FB022000047F39140400D015
:10025000401C50EA124001D44000491EC2B20C06B4
:1002600004EBD010401C4008802A02D003E000209C
:1002700010BD20F00100002900DA0020184310BD55
:1002800030B480EA010202F0004530F0004221F073
:10029000004013D090B1C30DD40DC2F31601C0F3CA
:1002A0001600E41A41F4000140F400027D3491424A
:1002B00001D3641C00E04900002C02DA30BC0020AD
:1002C00070474FF400000023914201D3891A034381
:1002D00040084FEA4101F7D151B1914202D14FF0AC
:1002E000004105E002D24FF0010101E06FF0010191
:1002F00003EBC450284430BC00F013B8002801DBE5
:10030000C0F10040002901DBC1F10041814201D26E
:10031000012070470020704796230022114600F00C
:1003200009B80029A8BF7047401C490008BF20F049
:100330000100704710B4B0FA80FC00FA0CF050EAEB
:10034000010404BF10BC704749B1CCF1200421FA6C
:1003500004F411FA0CF118BF012121430843A3EB67
:100360000C01CB1D4FEA00614FEA102042BF002074
:1003700010BC704700EBC35010440029A4BF10BC50
:100380007047401C490008BF20F0010010BC7047B6
:10039000420005D0C0F3C7525242914201DC002016
:1003A000704700EBC1507047C10F80EAE07008440D
:1003B000CA0796230021FFF7BDBF0000064C074D7A
:1003C00006E0E06840F0010394E807009847103425
:1003D000AC42F6D3FFF78EFE441D0008641D0008F2
:1003E0002DE9F04F87B083464068CDE90021002811
:1003F00064D0DBE90258DBF810600023DBF8000072
:10040000002802A84CC033D0DDF804900024002658
:100410004FF0000A58F8040BDBF81410FFF7A6FEA3
:1004200040F6DB71C4F2C9010746FFF7F7FE01F0A1
:100430008FFA01463046FFF799FE59F8042B55F81C
:10044000041B06461046FFF7E3FE0146FFF7E6FEF3
:100450003946FFF715FF01462046FFF787FEDBF818
:1004600000100AF1010A8A450446D3D302E000BF16
:100470000026002430464FF03F41FFF7CFFE0646EE
:1004800020464FF03F41FFF7C9FE01463046FFF7D7
:100490006DFE049E044656F8041B084601F058FA07
:1004A00001462046FFF762FE039BDBF80410029A28
:1004B00001338B4242F8040BA0D300E000210098E6
:1004C00006AA05AB00F004F8059807B0BDE8F08F68
:1004D0002DE9F04F89B082465AF8049B4E1E4FF02A
:1004E000000B8846BBEB960F1746059364D001902E
:1004F00001203346CDE90387B10860F301034FF0D3
:10050000000B042702960093DAF808000891DAE954
:1005100000860690DAF80C00414607904846FFF73F
:10052000EDFE00284C464846414618BF4446FFF7BA
:10053000E5FE00282046314618BFA7F1030BFFF760
:10054000DDFE002825462046314618BF3546FFF718
:10055000D5FE002818BFA7F1020B069E284631469B
:10056000FFF7CCFE00282C462846314618BF3446FB
:10057000FFF7C4FE002818BFA7F1010B079D204616
:100580002946FFF7BBFE0028A1462046294618BF92
:10059000A946FFF7B3FE0899002818BFBB460139EA
:1005A00007F104070AF1100AAED1DDE90010049F3B
:1005B000DDE9026800EB810A16F0030017D046421D
:1005C0004D4600BF5AF8044B48462146FFF796FEB9
:1005D00000284846214618BF2546FFF78FFE002811
:1005E00018BF08EB060B0136A946EBD300E04D46D9
:1005F00005983D60C0F800B009B0BDE8F08F00007C
:1006000070B5044600688168C943C9071CD1816878
:1006100021F00101816000F0ABFB05460FE000BF57
:1006200000F0A6FB401B022809D9A06A40F0100088
:10063000A062E06A40F00100E062012070BD206825
:100640008068C043C007EBD0002070BDF8B500261D
:100650000446009600688168C943C90728D08168AC
:1006600041F001018160134813490068B0FBF1F0CB
:1006700000E0401E00900028FBD100F079FB054609
:1006800011E000BF00F074FB401B02280BD9A06AE8
:1006900040F01000A062E06A40F00100E06284F8DF
:1006A00024600120F8BD20688068C043C007E9D1FC
:1006B0000020F8BD0C00002040420F00FEE770470C
:1006C000F8B50024009490F824202546012A12D081
:1006D000012280F824204A681F23072A0DD20668C9
:1006E000776B521E02EB820293409F430B6893404C
:1006F0001F43776319E00220F8BD06680D2A0AD26D
:10070000376BD21F02EB820293409F430B689340EA
:100710001F43376309E0F76A0D3A02EB8202934008
:100720009F430B6893401F43F7620A6807230668DC
:100730000A2A0AD3F7680A3A02EB420293409F431F
:100740008B6893401F43F76008E0376902EB420271
:1007500093409F438B6893401F4337610A68102A78
:1007600001D0112A20D1124B02689A4217D1936806
:100770001B0219D4936843F400039360096810299D
:1007800012D10C490C4A0968B1FBF2F101EB81016D
:10079000490000E0491E00910029FBD104E0816A74
:1007A00041F020018162012480F824502046F8BDE8
:1007B000002401400C00002040420F000068C06C83
:1007C000704700002DE9F0414FF0000704003D465E
:1007D0007ED0A06A002628B9E66284F8246020460C
:1007E00000F07EF82046FFF70BFFA16AC90600D48F
:1007F00020B1A06A40F01000A06269E0A16A21F473
:10080000885141F00201A1626268E169237B0A43D9
:1008100047EA43010A43A1684FF48077B94209D0FF
:10082000012907D05FF0000194F814C0BCF1010F5A
:1008300002D00AE03946F7E7F3B1A36A43F0200398
:10084000A362E36A43F00103E3622368D3F804C0C0
:100850002CF4694C4CEA010CC3F804C021688B6885
:10086000DFF870C003EA0C0313438B60A168B94240
:100870000BD0012909D00CE0DFF85CC0A3690CEBB8
:1008800043330B4343F40061DFE7218A0D05A5F5EF
:1008900080152168CB6A23F470032B43CB62216857
:1008A00089680E4B1940914208D1E662A16A21F095
:1008B000020141F00101A162BDE8F081A06A20F0CF
:1008C000020040F01000A062E06A40F00100E06227
:1008D0000120F1E7FDF7E1FF00E0FFFFFE0E1FFF43
:1008E00010B586B0002100910191029103911A4C3C
:1008F00003681A4903221A48A34211D18B6943F4B1
:1009000000738B618B6903F4007304938B6943F06C
:1009100004038B61896901F004010491012113E052
:10092000104CA34215D18B6943F480638B618B69B2
:1009300003F4806304938B6943F004038B6189693A
:1009400001F0040104910221CDE90012694600F092
:100950002FF906B010BD0000002401400010024035
:1009600000080140002801402DE9F84300260D460B
:100970000446009600F0FCF9804620688168C905AD
:1009800008D5A06A40F02000A06284F8246001200D
:10099000BDE8F8834168C90503D4C06A10F4700F3C
:1009A00026D0022000F074FA38490968B1FBF0F74C
:1009B0002068036936490B424FEA61014FEAA112F0
:1009C0001BD1C3684FEA611C13EA0C0F15D10369F0
:1009D0000B4221D1C06810421ED114201FE0681CB8
:1009E00006D045B300F0C4F9A0EB0800A84222D815
:1009F000206800688007F2D52AE003690B4202D123
:100A0000C168114206D0026922490A4206D1C06873
:100A1000084203D1542002E0292000E0FC20474393
:100A2000009813E0681C0ED02DB100F0A1F9A0EBE6
:100A30000800A84207D9A06A40F00400A06284F828
:100A400024600320A4E70098401C0090B842E9D33A
:100A500021686FF012000860A06A40F40070A06284
:100A600020688068C0F3424007280CD1207B50B931
:100A7000A06A20F48070A062A06AC00403D4A06AB7
:100A800040F00100A062002082E700000C0000207E
:100A9000244992244992240070B5044690F8240019
:100AA00001280DD0012084F824002046FFF7CEFD58
:100AB00002004FF0000005D084F82400104670BDFD
:100AC000022070BDA16A40F20123994341F4807174
:100AD000A1621F4D23681F49AB4218D10E6816F45E
:100AE000702F14D0A66A46F48016A6620E687605AA
:100AF00005D5A66A26F4005646F48056A662A66A74
:100B0000F6040AD5E66A26F00606E66206E0A66A5C
:100B100026F48016A6625E68E9E7E06284F82400A5
:100B20006FF00200186020688368C3F34243072B0C
:100B300005D1A84208D1096811F4702F04D081684A
:100B400041F480118160B9E7816841F4A001F9E7BF
:100B5000002801400424014010B5044690F8240008
:100B6000012807D0012084F824002046FFF748FD23
:100B700010B107E0022010BDA16A21F4885141F0B4
:100B80000101A162002184F8241010BD70B5044653
:100B900000F0EEF80546601C02D0044800780444DA
:100BA00000F0E6F8401BA042FAD370BD0000002020
:100BB0002DE9F84FDFF89C91002409F1040A0AF1AD
:100BC000040B23460F270BF1040EBBE00125A540C3
:100BD0002A40AA4276D1DFF880C14E68A6EB0C0805
:100BE00066452BD00DDC032E34D005DC36B3012E48
:100BF00019D0022E2FD11BE0112E16D0122E2AD181
:100C000019E0B8F5881F19D006DCB8F5803F15D07B
:100C1000B8F5801F1FD111E0B8F5001F0ED0B8F550
:100C2000041F18D10AE0CB6815E0CB681B1D12E049
:100C3000CB6808330FE0CB680C330CE08B682BB12A
:100C4000012B4FF0080303D0456104E0042302E0C8
:100C5000056100E00023FF2A01D8064601E000F10B
:100C600004064FEA840501D9A5F12005D6F80080D5
:100C700007FA05FC28EA0C0803FA05F548EA050816
:100C8000C6F800804D68ED005BD5344DAE6946F086
:100C90000106AE61AD6924F0030605F0010500957B
:100CA0002F4D06EB050CDCF80850A607360F07FAA7
:100CB00006F825EA0805DFF8AC80404503D14FF07F
:100CC000000810E03DE0DFF8A080404502D14FF081
:100CD000010808E0DFF89480404502D14FF0020897
:100CE00001E04FF0030808FA06F848EA0508CCF8D6
:100CF00008804D68D9F80060ED034D4601D51643D4
:100D000000E096432E604D68DAF80060AD0355466A
:100D100001D5164300E096432E604D68DBF8006075
:100D2000ED025D4601D5164300E096432E604D6806
:100D3000DEF80060AD02754601D5164300E096432B
:100D40002E60641C0A6832FA04F57FF43FAFBDE8F8
:100D5000F88F000000040140000011100010024054
:100D60000000014000080140000C0140001001405B
:100D70000148806870470000000000200248816838
:100D8000027811448160704700000020074810B5C8
:100D9000016841F010010160032000F067F80020B5
:100DA00000F006F800F024F8002010BD00200240FA
:100DB00070B50D4D04464FF47A712878B1FBF0F010
:100DC0000A490968B1FBF0F000F0B8FB48B9102CF3
:100DD00007D200222146501E00F028F800206C6047
:100DE00070BD012070BD0000000000200C0000203C
:100DF0000C4808B5816941F001018161816901F008
:100E000001010091C16941F08051C161C06900F0E8
:100E1000805000900448416821F0E06141F0806119
:100E2000416008BD0010024000000140F0B40E4BCC
:100E30001B680C46C3F30223C3F10705042D00D938
:100E40000425191D072901D2002300E0DB1E01261D
:100E500006FA05F1491E214099409E40761E164033
:100E60003143F0BC00F043BD0CED00E0064900F05A
:100E7000070208684FF6FF03184040EA0220034AC1
:100E800010430860704700000CED00E00000FA0518
:100E900010B529A401461DCC86B08DE81D002AA0FE
:100EA0002A4C006804900020012923D002293AD05E
:100EB00010291DD161682268D20119D5C1F383427E
:100EC000C9031DF8020009D5616804AAC1F34041B5
:100ED000515C1F4AB2FBF1F1484301E01D49484310
:100EE0006168490204D440005FF00301B0FBF1F0F7
:100EF00006B010BD226AC2F30121012903D1920775
:100F000001D5C803F4E7022905D1626A920702D528
:100F100049F64040ECE70329EAD121688903E7D587
:100F20004FF22440E4E700F033F96168C1F3813106
:100F3000491C4900DAE70000020304050607080916
:100F40000A0B0C0D0E0F10100102000000100240E1
:100F500000127A0000093D002DE9F84305460078AB
:100F6000354CC00754D0E0690026C00008D4E069C1
:100F700040F08050E061E069012600F08050009070
:100F80002E480168C90512D40168804641F4807179
:100F90000160FFF7EDFE074605E000BFFFF7E8FE42
:100FA000C01B642823D8D8F80000C005F6D5206AF5
:100FB00010F4407021D0A98801F4407181421CD006
:100FC000206A1F49012220F440700A6000220A6052
:100FD0002062C00711D0FFF7CBFE074641F28838E8
:100FE00008E000BFFFF7C4FEC11B414502D9032042
:100FF000BDE8F883206A8007F4D5206A696820F488
:101000004070084320621EB1E06920F08050E0612A
:101010002878800705D56068A96820F44040084317
:1010200060602878C00605D56068E96820F4800013
:10103000084360600020DBE70010024000700040C1
:10104000400442422DE9F0470F46050061D0434E6F
:10105000306800F00700B84209D2306820F007007D
:1010600038433060306800F00700B84251D128683A
:101070003B4C810712D5400703D5606840F4E0601F
:1010800060602878000703D5606840F460506060B5
:101090006068A96820F0F000084360602878C00705
:1010A00028D06868012810D02168022810D089074C
:1010B00000292EDA616821F0030101436160FFF726
:1010C00057FE804641F288390DE021688903EFE739
:1010D0008901EDE7FFF74CFEA0EB0801494502D975
:1010E0000320BDE8F0876068696800F00C00B0EB91
:1010F000810FEFD1306800F00700B8420BD930689B
:1011000020F0070038433060306800F00700B84234
:1011100001D00120E5E72878400705D56068E96837
:1011200020F4E060084360602878000706D5606816
:10113000296920F4605040EAC100606000F038F88E
:101140006168084AC1F30311515CC8400649086050
:1011500006480068FFF72CFE0020C2E7002002408E
:1011600000100240EC1C00080C00002004000020CD
:101170000448054900684968044AC1F30221515CEA
:10118000C84070470C00002000100240FC1C000802
:101190000448054900684968044AC1F3C221515C0A
:1011A000C84070470C00002000100240FC1C0008E2
:1011B00012A185B00FC98DE80F0014A0144A006871
:1011C00004905168134801F00C03042B10D0082B35
:1011D0000ED1C1F38343C9031DF803000AD551683A
:1011E00004AAC1F34041515C0A4A5043B0FBF1F0FC
:1011F00005B0704708494843FAE7000002030405B8
:10120000060708090A0B0C0D0E0F10100102000052
:101210000010024000127A0000093D002DE9F84F4D
:10122000040070D02078C04DC00749D06868C0F372
:101230008100012807D06868C0F38100022809D125
:101240006868C00306D52868800339D5606800281F
:10125000E7D035E06068B0F5803F0BD010B1B0F555
:10126000A02F11D0286820F480302860286820F44E
:10127000802002E0286840F480302860606890B1E7
:10128000FFF776FD06460AE0286840F480202860D3
:10129000F0E700BFFFF76CFD801B642873D8286857
:1012A0008003F7D50CE0FFF763FD064605E000BFBD
:1012B000FFF75EFD801B6428F0D828688003F7D410
:1012C00020789A4E80074FF001094FF0000839D579
:1012D000686810F00C0F07D06868C0F3810002281E
:1012E00009D16868C00306D42868800714D520692E
:1012F000012808D110E02069B0B1C6F80090FFF7CE
:1013000037FD074605E00AE1FFF732FDC01B022862
:10131000C4D828688007F7D52868616920F0F800EC
:1013200040EAC10028600DE0C6F80080FFF720FD0C
:10133000074604E0FFF71CFDC01B022823D82868DD
:101340008007F7D4207800072CD57948A169D9B156
:10135000C0F80090FFF70CFD074604E0FFF708FD1A
:10136000C01B02280FD8686A8007F7D571484FF470
:10137000FA510068B0FBF1F0009000BF0098411EE8
:101380000091FAD20EE080E0C0F80080FFF7F0FC98
:10139000074604E0FFF7ECFCC01B022875D8686A1A
:1013A0008007F7D42078400760D5E8690027C0009F
:1013B00008D4E86940F08050E861E869012700F04E
:1013C000805000905C480168C90513D401688346C9
:1013D00041F480710160FFF7CBFC824606E000BF5C
:1013E000FFF7C6FCA0EB0A0064284ED8DBF800002B
:1013F000C005F5D5E06801280AD008B1052813D04A
:10140000286A20F001002862286A20F0040002E027
:10141000286A40F001002862E06841F2883B98B1F8
:10142000FFF7A6FC82460BE0286A40F00400286221
:10143000EEE700BFFFF79CFCA0EB0A0159455AD824
:10144000286A8007F6D50CE0FFF792FC824605E09B
:10145000FFF78EFCA0EB0A0159454CD8286A80079B
:10146000F6D41FB1E86920F08050E861E06988B3E4
:101470006968C1F38101022944D00228C6F860805E
:1014800004D0FFF775FC044638E034E0FFF770FC49
:10149000074604E0FFF76CFCC01B02282BD8286825
:1014A0008001F7D4206AB0F5803F05D16868A16853
:1014B00020F4003008436860D4E9080108436968F3
:1014C00021F4741108436860C6F86090FFF750FC7F
:1014D000044606E025E000BFFFF74AFC001B022897
:1014E00009D828688001F7D51BE000BFFFF740FC52
:1014F000001B022802D90320BDE8F88F286880016C
:10150000F4D40EE00128F7D06868226A00F4803134
:10151000914204D1616A00F47010884201D0012028
:10152000EAE70020E8E70000001002400000424225
:10153000800442420C0000200070004010B5401EA4
:10154000B0F1807F01D3012010BD4FF0E024606135
:101550000F21601700F0CBF90020A0610720206167
:10156000002010BD70B5040004D094F839000025A7
:1015700010B106E0012070BD84F83850204600F01C
:1015800023F8242084F839002068C16821F4005130
:10159000C160204600F01CF92068016921F49041E7
:1015A00001612068416921F02A0141612068C16818
:1015B00041F40051C160E563202084F8390084F8CB
:1015C0003A00002070BD000030B585B000240094C2
:1015D00001940294039400681449884224D1144869
:1015E000816941F480418161816901F48041049104
:1015F000816941F00401816180690E4D00F00400B1
:1016000004904FF40070009002200190032003909A
:1016100069462846FFF7CCFA2815CDE9000469464B
:1016200028460294FFF7C4FA05B030BD00380140E7
:1016300000100240000801402DE9F843044690F8EC
:1016400039001F4616460D4620284CD1C5B1BEB103
:1016500094F83800012846D0012084F838004FF073
:101660000008C4F83C80212084F83900FFF780FB93
:10167000A6848146E684A068B0F5805F03D004E0CC
:101680000120BDE8F883206928B12E465FF00005EF
:1016900084F838800EE00026FAE78021204600F02A
:1016A000F3F8A0B9AEB116F8010B21684860E08CE0
:1016B000401EE084E08C4B464FF00002009700286B
:1016C000EBD14FF04001204600F0DEF830B10320AE
:1016D000D7E735F8020BC0F30800E6E7202084F8CE
:1016E00039000020CDE70220CBE7FEE73EB500241D
:1016F0000D480094019402940A49846001600473C7
:101700000475012505614FF460214460C161FFF754
:1017100059F8CDE90045694603480294FEF7D0FF29
:101720003EBD000000240140140000203EB500250D
:101730000D480095019502950A4985600160057381
:101740000575012445604FF460210461C161FFF714
:1017500039F8009469460448CDE90145FEF7B0FF29
:101760003EBD00000028014044000020FEE7704715
:1017700070477047FFF702BB30B593B02821684629
:10178000FEF7E9FC14210AA8FEF7E5FC002401207D
:101790000F94022504900095102011940590109448
:1017A000129407946846FFF739FD0F20CDE90A042B
:1017B0000C940D9400210AA80E94FFF743FC0FA887
:1017C0000F951194FFF7C8FB13B030BD70470000B0
:1017D00070B5044600680169E26821F44051114384
:1017E00001612169A0680843616908432168CA68EA
:1017F00041F20C639A430243CA6020684169A269BE
:1018000021F44071114341611E492068884202D190
:10181000FFF7BEFC01E0FFF7ABFC00EBC00101EB02
:101820000012606864218000B2FBF0F3B3FBF1F3B7
:101830006FF018067343B2FBF0F5B2FBF0F605EB60
:101840008305322303EB0515B5FBF1F5B6FBF1F685
:1018500005F0F00505EB0615B2FBF0F6B2FBF0F073
:10186000B0FBF1F06FF01802504306EB800003EB81
:101870000010B0FBF1F0216800F00F0028448860F0
:1018800070BD0000003801402DE9F0419846174630
:101890000E460446069D1DE0681C1BD02DB1FFF7C7
:1018A00067FAA0EB0800A84214D92068C16821F4A7
:1018B000D071C1602068416921F00101416120209F
:1018C00084F8390084F83A00002084F838000320B6
:1018D000BDE8F0812068006836EA000004D00020EE
:1018E000B842D9D00020F3E70120F9E7FEE7090765
:1018F000090E002804DB00F1E02080F80014704796
:1019000000F00F0000F1E02080F8141D7047002166
:101910004FF07E50FEF7B4BC0121FEF739BD002127
:101920000846FEF7ADBC02E008C8121F08C1002A35
:10193000FAD170477047002001E001C1121F002A50
:10194000FBD170470149086070470000100000207B
:101950002DE9F0410026A0F50001B1F1FE4F7DD246
:1019600000F500226FF07E0101EBE251C2F3025458
:1019700077184FF07E52A0EBC15602EB045557EAA0
:10198000040047D029463046FEF7F0FB8046294642
:101990003046FEF73DFC4146FEF772FC0546014627
:1019A000FEF73CFC80464549FEF738FC4449FEF70B
:1019B000DDFB064641462846FEF730FC3146FEF781
:1019C0002DFC06463846FEF7EFFC07463D49FEF77C
:1019D00025FC3D49794451F82410FEF7C7FB3146F8
:1019E000FEF7C4FB064601212846FEF7D1FC31462E
:1019F000FEF7BCFB054638463449FEF70FFC344978
:101A0000794451F82410FEF7B1FB2946BDE8F041B6
:101A1000FEF7ACBB4FF07E513046FEF7F9FB0546B2
:101A20002C49FEF7FBFB2C49FEF7A0FB2946FEF7ED
:101A3000F5FB2A49FEF79AFB2946FEF7EFFB6FF00C
:101A40008241FEF793FB044629460846FEF7E6FB73
:101A50002146FEF7E3FB0146284600E003E0BDE82F
:101A6000F041FEF783BB4FF07F42B2EB400F03D251
:101A7000BDE8F041FFF750BFB0F1FF4F08BFBDE830
:101A8000F081B0F1004F06D90120FFF75BFFBDE800
:101A9000F041FFF744BF30F0004105D06FF016066B
:101AA0001721FEF775FC5BE70220FFF74BFFFFF7FE
:101AB0002EFF80F00040BDE8F081000066F1CC3ED2
:101AC000AAAA2A3FF4FD05384C0300000070313FFC
:101AD0000003000021ED423E0A1180BEC1ABAA3EC8
:101AE00008B5FFF753F9FFF747FE2C48816941F02D
:101AF00020018161816901F020010091816941F03B
:101B000004018161806900F004000090FFF7EEFDA0
:101B1000FFF70CFE234822490C2201604FF41651B6
:101B2000416000218160C160C0E904128161C1612E
:101B3000FFF718FD4FF0FF361A486038FEF7ACFF8C
:101B400018483038FEF7A8FF16483446314660384A
:101B5000FEF70AFF134821463038FEF705FF11480B
:101B60006038FEF72BFE05460E483038FEF726FE9D
:101B700004460C486038FEF7EFFF0A483038FEF79D
:101B8000EBFF0920FFF702F82146284600F00CF889
:101B900000F04EF80120FEF7F9FFCDE700100240FB
:101BA000003801407400002030B597B00D4604465F
:101BB00018221C4901A8FEF7B5FA1A491822183153
:101BC00007A8FEF7AFFA174A10AB303207CA83E80E
:101BD00007001548022101600321416001A98160CD
:101BE00007A9C16010A90161104941612046FEF7B3
:101BF00093FB13902846FEF78FFB14900DAA13A9B0
:101C00000948FEF7EDFB0DA9009051F82000159052
:101C10006B4615AA03210DA8FEF75AFC009817B0D1
:101C200030BD0000741C0008B4000020C1BD943118
:101C300010B586B04FF0FF3430B1012808D002282B
:101C400012D11422094906E008491422283902E079
:101C50000649142214396846FEF764FA2346142212
:101C600069460348FFF7E8FC06B010BDD81C000821
:101C700074000020211BBA3F964D5F3FF86DC3BF33
:101C80006A38673FAA0F1DBE95FC3FC0FBCF803F5F
:101C90008E5F673F93DF823F60E1463F09968F3F4B
:101CA000637D9D3FABAAAA3EABAAAA3EABAAAA3EC1
:101CB0005241494E590000000000000000000000A1
:101CC0000000000053554E4E590000000000000077
:101CD000000000000000000057494E54455200002B
:101CE00000000000000000000000000000000000F4
:101CF00000000000010203040607080900000000BC
:101D000001020304000000000030F13D0070643E59
:101D10000000A33E0090CF3E0090F83E00400F3FF1
:101D200000E0203F0000000015B78337CDE37B388B
:101D30000EE1C53860F69138AF5F0F38E1BC3E3830
:101D400023F44739641D000800000020140000003F
:101D500026190008781D000814000020BC040000AB
:101D6000361900080100000010000000000000000B
:081D70000024F4000000000053
:04000005080000ED02
:00000001FF
